{
  "_format": "hh-sol-artifact-1",
  "contractName": "MaidFinder",
  "sourceName": "contracts/MaidFinder.sol",
  "abi": [
    {
      "inputs": [],
      "stateMutability": "nonpayable",
      "type": "constructor"
    },
    {
      "anonymous": false,
      "inputs": [
        {
          "indexed": false,
          "internalType": "uint256",
          "name": "jobId",
          "type": "uint256"
        },
        {
          "indexed": false,
          "internalType": "address",
          "name": "employer",
          "type": "address"
        },
        {
          "indexed": false,
          "internalType": "uint256",
          "name": "updatedAt",
          "type": "uint256"
        }
      ],
      "name": "EmployerMarked",
      "type": "event"
    },
    {
      "anonymous": false,
      "inputs": [
        {
          "indexed": false,
          "internalType": "uint256",
          "name": "jobId",
          "type": "uint256"
        },
        {
          "indexed": false,
          "internalType": "address",
          "name": "maid",
          "type": "address"
        },
        {
          "indexed": false,
          "internalType": "uint256",
          "name": "amount",
          "type": "uint256"
        }
      ],
      "name": "FundReleased",
      "type": "event"
    },
    {
      "anonymous": false,
      "inputs": [
        {
          "indexed": false,
          "internalType": "uint256",
          "name": "jobId",
          "type": "uint256"
        },
        {
          "indexed": false,
          "internalType": "uint256",
          "name": "updatedAt",
          "type": "uint256"
        }
      ],
      "name": "JobCancelled",
      "type": "event"
    },
    {
      "anonymous": false,
      "inputs": [
        {
          "indexed": false,
          "internalType": "uint256",
          "name": "jobId",
          "type": "uint256"
        },
        {
          "indexed": false,
          "internalType": "address",
          "name": "maid",
          "type": "address"
        },
        {
          "indexed": false,
          "internalType": "address",
          "name": "employer",
          "type": "address"
        },
        {
          "indexed": false,
          "internalType": "uint256",
          "name": "amount",
          "type": "uint256"
        },
        {
          "indexed": false,
          "internalType": "uint256",
          "name": "createAt",
          "type": "uint256"
        }
      ],
      "name": "JobCreated",
      "type": "event"
    },
    {
      "anonymous": false,
      "inputs": [
        {
          "indexed": false,
          "internalType": "uint256",
          "name": "jobId",
          "type": "uint256"
        },
        {
          "indexed": false,
          "internalType": "address",
          "name": "maid",
          "type": "address"
        },
        {
          "indexed": false,
          "internalType": "uint256",
          "name": "updatedAt",
          "type": "uint256"
        }
      ],
      "name": "MaidMarked",
      "type": "event"
    },
    {
      "anonymous": false,
      "inputs": [
        {
          "indexed": false,
          "internalType": "address",
          "name": "maid",
          "type": "address"
        },
        {
          "indexed": false,
          "internalType": "string",
          "name": "ipfsHash",
          "type": "string"
        },
        {
          "indexed": false,
          "internalType": "uint256",
          "name": "createAt",
          "type": "uint256"
        }
      ],
      "name": "MaidRegistered",
      "type": "event"
    },
    {
      "anonymous": false,
      "inputs": [
        {
          "indexed": false,
          "internalType": "address",
          "name": "maid",
          "type": "address"
        },
        {
          "indexed": false,
          "internalType": "bool",
          "name": "status",
          "type": "bool"
        }
      ],
      "name": "MaidVerified",
      "type": "event"
    },
    {
      "stateMutability": "payable",
      "type": "fallback"
    },
    {
      "inputs": [],
      "name": "admin",
      "outputs": [
        {
          "internalType": "address",
          "name": "",
          "type": "address"
        }
      ],
      "stateMutability": "view",
      "type": "function"
    },
    {
      "inputs": [
        {
          "internalType": "uint256",
          "name": "jobId",
          "type": "uint256"
        }
      ],
      "name": "cancelJob",
      "outputs": [],
      "stateMutability": "nonpayable",
      "type": "function"
    },
    {
      "inputs": [
        {
          "internalType": "address",
          "name": "maid",
          "type": "address"
        },
        {
          "internalType": "string",
          "name": "ipfsHash",
          "type": "string"
        }
      ],
      "name": "createJob",
      "outputs": [],
      "stateMutability": "payable",
      "type": "function"
    },
    {
      "inputs": [
        {
          "internalType": "uint256",
          "name": "jobId",
          "type": "uint256"
        }
      ],
      "name": "employerConfirmJob",
      "outputs": [],
      "stateMutability": "nonpayable",
      "type": "function"
    },
    {
      "inputs": [
        {
          "internalType": "uint256",
          "name": "jobId",
          "type": "uint256"
        }
      ],
      "name": "getJob",
      "outputs": [
        {
          "components": [
            {
              "internalType": "uint256",
              "name": "jobId",
              "type": "uint256"
            },
            {
              "internalType": "string",
              "name": "ipfsHash",
              "type": "string"
            },
            {
              "internalType": "address",
              "name": "maid",
              "type": "address"
            },
            {
              "internalType": "address",
              "name": "employer",
              "type": "address"
            },
            {
              "internalType": "enum MaidFinder.JobStatus",
              "name": "status",
              "type": "uint8"
            },
            {
              "internalType": "uint256",
              "name": "amount",
              "type": "uint256"
            },
            {
              "internalType": "bool",
              "name": "employerMarked",
              "type": "bool"
            },
            {
              "internalType": "bool",
              "name": "maidConfirmed",
              "type": "bool"
            },
            {
              "internalType": "uint256",
              "name": "createAt",
              "type": "uint256"
            },
            {
              "internalType": "uint256",
              "name": "updatedAt",
              "type": "uint256"
            }
          ],
          "internalType": "struct MaidFinder.Job",
          "name": "",
          "type": "tuple"
        }
      ],
      "stateMutability": "view",
      "type": "function"
    },
    {
      "inputs": [
        {
          "internalType": "uint256",
          "name": "jobId",
          "type": "uint256"
        }
      ],
      "name": "getJobStatus",
      "outputs": [
        {
          "internalType": "enum MaidFinder.JobStatus",
          "name": "",
          "type": "uint8"
        }
      ],
      "stateMutability": "view",
      "type": "function"
    },
    {
      "inputs": [
        {
          "internalType": "address",
          "name": "maid",
          "type": "address"
        }
      ],
      "name": "getMaid",
      "outputs": [
        {
          "components": [
            {
              "internalType": "address",
              "name": "wallet",
              "type": "address"
            },
            {
              "internalType": "string",
              "name": "ipfsHash",
              "type": "string"
            },
            {
              "internalType": "bool",
              "name": "verified",
              "type": "bool"
            },
            {
              "internalType": "bool",
              "name": "exists",
              "type": "bool"
            },
            {
              "internalType": "uint256",
              "name": "createAt",
              "type": "uint256"
            }
          ],
          "internalType": "struct MaidFinder.Maid",
          "name": "",
          "type": "tuple"
        }
      ],
      "stateMutability": "view",
      "type": "function"
    },
    {
      "inputs": [],
      "name": "jobCount",
      "outputs": [
        {
          "internalType": "uint256",
          "name": "",
          "type": "uint256"
        }
      ],
      "stateMutability": "view",
      "type": "function"
    },
    {
      "inputs": [
        {
          "internalType": "uint256",
          "name": "",
          "type": "uint256"
        }
      ],
      "name": "jobs",
      "outputs": [
        {
          "internalType": "uint256",
          "name": "jobId",
          "type": "uint256"
        },
        {
          "internalType": "string",
          "name": "ipfsHash",
          "type": "string"
        },
        {
          "internalType": "address",
          "name": "maid",
          "type": "address"
        },
        {
          "internalType": "address",
          "name": "employer",
          "type": "address"
        },
        {
          "internalType": "enum MaidFinder.JobStatus",
          "name": "status",
          "type": "uint8"
        },
        {
          "internalType": "uint256",
          "name": "amount",
          "type": "uint256"
        },
        {
          "internalType": "bool",
          "name": "employerMarked",
          "type": "bool"
        },
        {
          "internalType": "bool",
          "name": "maidConfirmed",
          "type": "bool"
        },
        {
          "internalType": "uint256",
          "name": "createAt",
          "type": "uint256"
        },
        {
          "internalType": "uint256",
          "name": "updatedAt",
          "type": "uint256"
        }
      ],
      "stateMutability": "view",
      "type": "function"
    },
    {
      "inputs": [
        {
          "internalType": "uint256",
          "name": "jobId",
          "type": "uint256"
        }
      ],
      "name": "maidConfirmJob",
      "outputs": [],
      "stateMutability": "nonpayable",
      "type": "function"
    },
    {
      "inputs": [
        {
          "internalType": "address",
          "name": "",
          "type": "address"
        }
      ],
      "name": "maids",
      "outputs": [
        {
          "internalType": "address",
          "name": "wallet",
          "type": "address"
        },
        {
          "internalType": "string",
          "name": "ipfsHash",
          "type": "string"
        },
        {
          "internalType": "bool",
          "name": "verified",
          "type": "bool"
        },
        {
          "internalType": "bool",
          "name": "exists",
          "type": "bool"
        },
        {
          "internalType": "uint256",
          "name": "createAt",
          "type": "uint256"
        }
      ],
      "stateMutability": "view",
      "type": "function"
    },
    {
      "inputs": [
        {
          "internalType": "string",
          "name": "ipfsHash",
          "type": "string"
        }
      ],
      "name": "registerMaid",
      "outputs": [],
      "stateMutability": "nonpayable",
      "type": "function"
    },
    {
      "inputs": [
        {
          "internalType": "address",
          "name": "maid",
          "type": "address"
        },
        {
          "internalType": "bool",
          "name": "status",
          "type": "bool"
        }
      ],
      "name": "verifyMaid",
      "outputs": [],
      "stateMutability": "nonpayable",
      "type": "function"
    },
    {
      "stateMutability": "payable",
      "type": "receive"
    }
  ],
  "bytecode": "0x6080604052348015600f57600080fd5b50336000806101000a81548173ffffffffffffffffffffffffffffffffffffffff021916908373ffffffffffffffffffffffffffffffffffffffff160217905550612d798061005f6000396000f3fe6080604052600436106100c65760003560e01c80637fb8b6231161007f578063bf22c45711610059578063bf22c4571461028c578063c41cf2e2146102c9578063d16bc65a146102f2578063f851a4401461031b576100c7565b80637fb8b623146101e5578063a6c58b631461020e578063b5f91ad41461024b576100c7565b8063180aedf3146100c95780631dffa3dc1461010f578063334364c2146101385780633c6a1c67146101755780634c5d8a0f14610191578063671b9acb146101bc576100c7565b5b005b3480156100d557600080fd5b506100f060048036038101906100eb9190611b35565b610346565b6040516101069a99989796959493929190611cd4565b60405180910390f35b34801561011b57600080fd5b5061013660048036038101906101319190611b35565b610489565b005b34801561014457600080fd5b5061015f600480360381019061015a9190611da3565b6106e6565b60405161016c9190611ebd565b60405180910390f35b61018f600480360381019061018a9190611f44565b610867565b005b34801561019d57600080fd5b506101a6610cca565b6040516101b39190611fa4565b60405180910390f35b3480156101c857600080fd5b506101e360048036038101906101de9190611b35565b610cd0565b005b3480156101f157600080fd5b5061020c60048036038101906102079190611b35565b610ec0565b005b34801561021a57600080fd5b5061023560048036038101906102309190611b35565b611200565b6040516102429190611fbf565b60405180910390f35b34801561025757600080fd5b50610272600480360381019061026d9190611da3565b61122d565b604051610283959493929190611fda565b60405180910390f35b34801561029857600080fd5b506102b360048036038101906102ae9190611b35565b611325565b6040516102c0919061211d565b60405180910390f35b3480156102d557600080fd5b506102f060048036038101906102eb919061213f565b61152a565b005b3480156102fe57600080fd5b50610319600480360381019061031491906121b8565b61183f565b005b34801561032757600080fd5b506103306119f3565b60405161033d91906121f8565b60405180910390f35b600360205280600052604060002060009150905080600001549080600101805461036f90612242565b80601f016020809104026020016040519081016040528092919081815260200182805461039b90612242565b80156103e85780601f106103bd576101008083540402835291602001916103e8565b820191906000526020600020905b8154815290600101906020018083116103cb57829003601f168201915b5050505050908060020160009054906101000a900473ffffffffffffffffffffffffffffffffffffffff16908060030160009054906101000a900473ffffffffffffffffffffffffffffffffffffffff16908060030160149054906101000a900460ff16908060040154908060050160009054906101000a900460ff16908060050160019054906101000a900460ff1690806006015490806007015490508a565b6000600360008381526020019081526020016000209050600160048111156104b4576104b3611c42565b5b8160030160149054906101000a900460ff1660048111156104d8576104d7611c42565b5b14610518576040517f08c379a000000000000000000000000000000000000000000000000000000000815260040161050f906122bf565b60405180910390fd5b8060030160009054906101000a900473ffffffffffffffffffffffffffffffffffffffff1673ffffffffffffffffffffffffffffffffffffffff163373ffffffffffffffffffffffffffffffffffffffff1614806105c1575060008054906101000a900473ffffffffffffffffffffffffffffffffffffffff1673ffffffffffffffffffffffffffffffffffffffff163373ffffffffffffffffffffffffffffffffffffffff16145b610600576040517f08c379a00000000000000000000000000000000000000000000000000000000081526004016105f79061232b565b60405180910390fd5b60048160030160146101000a81548160ff0219169083600481111561062857610627611c42565b5b02179055504281600701819055508060030160009054906101000a900473ffffffffffffffffffffffffffffffffffffffff1673ffffffffffffffffffffffffffffffffffffffff166108fc82600401549081150290604051600060405180830381858888f193505050501580156106a4573d6000803e3d6000fd5b507f7e3805011acb8d49832d7ef085841e251e66267c06e54e0ac20cb09f3c696d3b8282600701546040516106da92919061234b565b60405180910390a15050565b6106ee611a17565b600260008373ffffffffffffffffffffffffffffffffffffffff1673ffffffffffffffffffffffffffffffffffffffff1681526020019081526020016000206040518060a00160405290816000820160009054906101000a900473ffffffffffffffffffffffffffffffffffffffff1673ffffffffffffffffffffffffffffffffffffffff1673ffffffffffffffffffffffffffffffffffffffff16815260200160018201805461079e90612242565b80601f01602080910402602001604051908101604052809291908181526020018280546107ca90612242565b80156108175780601f106107ec57610100808354040283529160200191610817565b820191906000526020600020905b8154815290600101906020018083116107fa57829003601f168201915b505050505081526020016002820160009054906101000a900460ff161515151581526020016002820160019054906101000a900460ff161515151581526020016003820154815250509050919050565b600260008473ffffffffffffffffffffffffffffffffffffffff1673ffffffffffffffffffffffffffffffffffffffff16815260200190815260200160002060020160019054906101000a900460ff16801561090f5750600260008473ffffffffffffffffffffffffffffffffffffffff1673ffffffffffffffffffffffffffffffffffffffff16815260200190815260200160002060020160009054906101000a900460ff165b61094e576040517f08c379a0000000000000000000000000000000000000000000000000000000008152600401610945906123c0565b60405180910390fd5b60003411610991576040517f08c379a00000000000000000000000000000000000000000000000000000000081526004016109889061242c565b60405180910390fd5b600082829050116109d7576040517f08c379a00000000000000000000000000000000000000000000000000000000081526004016109ce90612498565b60405180910390fd5b3373ffffffffffffffffffffffffffffffffffffffff168373ffffffffffffffffffffffffffffffffffffffff1603610a45576040517f08c379a0000000000000000000000000000000000000000000000000000000008152600401610a3c90612504565b60405180910390fd5b60016000815480929190610a5890612553565b9190505550604051806101400160405280600154815260200183838080601f016020809104026020016040519081016040528093929190818152602001838380828437600081840152601f19601f8201169050808301925050505050505081526020018473ffffffffffffffffffffffffffffffffffffffff1681526020013373ffffffffffffffffffffffffffffffffffffffff16815260200160016004811115610b0757610b06611c42565b5b815260200134815260200160001515815260200160001515815260200142815260200142815250600360006001548152602001908152602001600020600082015181600001556020820151816001019081610b629190612776565b5060408201518160020160006101000a81548173ffffffffffffffffffffffffffffffffffffffff021916908373ffffffffffffffffffffffffffffffffffffffff16021790555060608201518160030160006101000a81548173ffffffffffffffffffffffffffffffffffffffff021916908373ffffffffffffffffffffffffffffffffffffffff16021790555060808201518160030160146101000a81548160ff02191690836004811115610c1c57610c1b611c42565b5b021790555060a0820151816004015560c08201518160050160006101000a81548160ff02191690831515021790555060e08201518160050160016101000a81548160ff021916908315150217905550610100820151816006015561012082015181600701559050507f9f708ef692516d5076ae0cb779688ef01c75caad86fb2e2fa1b80612ee7e64a460015484333442604051610cbd959493929190612848565b60405180910390a1505050565b60015481565b806003600082815260200190815260200160002060030160009054906101000a900473ffffffffffffffffffffffffffffffffffffffff1673ffffffffffffffffffffffffffffffffffffffff163373ffffffffffffffffffffffffffffffffffffffff1614610d75576040517f08c379a0000000000000000000000000000000000000000000000000000000008152600401610d6c906128e7565b60405180910390fd5b600060036000848152602001908152602001600020905060016004811115610da057610d9f611c42565b5b8160030160149054906101000a900460ff166004811115610dc457610dc3611c42565b5b14610e04576040517f08c379a0000000000000000000000000000000000000000000000000000000008152600401610dfb906122bf565b60405180910390fd5b8060050160009054906101000a900460ff1615610e56576040517f08c379a0000000000000000000000000000000000000000000000000000000008152600401610e4d90612953565b60405180910390fd5b60018160050160006101000a81548160ff0219169083151502179055504281600701819055507f9d5963a2cd36faf06ec23eb92146f92db1864fbbdc40b4720e57b8435c389fc683338360070154604051610eb393929190612973565b60405180910390a1505050565b806003600082815260200190815260200160002060020160009054906101000a900473ffffffffffffffffffffffffffffffffffffffff1673ffffffffffffffffffffffffffffffffffffffff163373ffffffffffffffffffffffffffffffffffffffff1614610f65576040517f08c379a0000000000000000000000000000000000000000000000000000000008152600401610f5c906129f6565b60405180910390fd5b600060036000848152602001908152602001600020905060016004811115610f9057610f8f611c42565b5b8160030160149054906101000a900460ff166004811115610fb457610fb3611c42565b5b14610ff4576040517f08c379a0000000000000000000000000000000000000000000000000000000008152600401610feb906122bf565b60405180910390fd5b8060050160009054906101000a900460ff16611045576040517f08c379a000000000000000000000000000000000000000000000000000000000815260040161103c90612a62565b60405180910390fd5b8060050160019054906101000a900460ff1615611097576040517f08c379a000000000000000000000000000000000000000000000000000000000815260040161108e90612ace565b60405180910390fd5b60018160050160016101000a81548160ff02191690831515021790555060038160030160146101000a81548160ff021916908360048111156110dc576110db611c42565b5b02179055504281600701819055508060020160009054906101000a900473ffffffffffffffffffffffffffffffffffffffff1673ffffffffffffffffffffffffffffffffffffffff166108fc82600401549081150290604051600060405180830381858888f19350505050158015611158573d6000803e3d6000fd5b507f3d1902f79b0949813333b86cb9d9b5df6ae3a7f04a770f62fc1173a2981de12a8333836007015460405161119093929190612973565b60405180910390a17f182afa9d181d69bec024c0ca773a3858bf5178facff83b16197d0bb1735f543f838260020160009054906101000a900473ffffffffffffffffffffffffffffffffffffffff1683600401546040516111f393929190612973565b60405180910390a1505050565b60006003600083815260200190815260200160002060030160149054906101000a900460ff169050919050565b60026020528060005260406000206000915090508060000160009054906101000a900473ffffffffffffffffffffffffffffffffffffffff169080600101805461127690612242565b80601f01602080910402602001604051908101604052809291908181526020018280546112a290612242565b80156112ef5780601f106112c4576101008083540402835291602001916112ef565b820191906000526020600020905b8154815290600101906020018083116112d257829003601f168201915b5050505050908060020160009054906101000a900460ff16908060020160019054906101000a900460ff16908060030154905085565b61132d611a60565b60036000838152602001908152602001600020604051806101400160405290816000820154815260200160018201805461136690612242565b80601f016020809104026020016040519081016040528092919081815260200182805461139290612242565b80156113df5780601f106113b4576101008083540402835291602001916113df565b820191906000526020600020905b8154815290600101906020018083116113c257829003601f168201915b505050505081526020016002820160009054906101000a900473ffffffffffffffffffffffffffffffffffffffff1673ffffffffffffffffffffffffffffffffffffffff1673ffffffffffffffffffffffffffffffffffffffff1681526020016003820160009054906101000a900473ffffffffffffffffffffffffffffffffffffffff1673ffffffffffffffffffffffffffffffffffffffff1673ffffffffffffffffffffffffffffffffffffffff1681526020016003820160149054906101000a900460ff1660048111156114b9576114b8611c42565b5b60048111156114cb576114ca611c42565b5b8152602001600482015481526020016005820160009054906101000a900460ff161515151581526020016005820160019054906101000a900460ff16151515158152602001600682015481526020016007820154815250509050919050565b600260003373ffffffffffffffffffffffffffffffffffffffff1673ffffffffffffffffffffffffffffffffffffffff16815260200190815260200160002060020160019054906101000a900460ff16156115ba576040517f08c379a00000000000000000000000000000000000000000000000000000000081526004016115b190612b3a565b60405180910390fd5b60008282905011611600576040517f08c379a00000000000000000000000000000000000000000000000000000000081526004016115f790612498565b60405180910390fd5b60008054906101000a900473ffffffffffffffffffffffffffffffffffffffff1673ffffffffffffffffffffffffffffffffffffffff163373ffffffffffffffffffffffffffffffffffffffff160361168e576040517f08c379a000000000000000000000000000000000000000000000000000000000815260040161168590612ba6565b60405180910390fd5b6040518060a001604052803373ffffffffffffffffffffffffffffffffffffffff16815260200183838080601f016020809104026020016040519081016040528093929190818152602001838380828437600081840152601f19601f82011690508083019250505050505050815260200160001515815260200160011515815260200142815250600260003373ffffffffffffffffffffffffffffffffffffffff1673ffffffffffffffffffffffffffffffffffffffff16815260200190815260200160002060008201518160000160006101000a81548173ffffffffffffffffffffffffffffffffffffffff021916908373ffffffffffffffffffffffffffffffffffffffff16021790555060208201518160010190816117b09190612776565b5060408201518160020160006101000a81548160ff02191690831515021790555060608201518160020160016101000a81548160ff021916908315150217905550608082015181600301559050507ff6e1957d23082dfbd115db4f610d55fc4c10233d1986dafc8e5bb6fd006a25aa338383426040516118339493929190612c02565b60405180910390a15050565b60008054906101000a900473ffffffffffffffffffffffffffffffffffffffff1673ffffffffffffffffffffffffffffffffffffffff163373ffffffffffffffffffffffffffffffffffffffff16146118cd576040517f08c379a00000000000000000000000000000000000000000000000000000000081526004016118c490612c8e565b60405180910390fd5b600260008373ffffffffffffffffffffffffffffffffffffffff1673ffffffffffffffffffffffffffffffffffffffff16815260200190815260200160002060020160019054906101000a900460ff1661195c576040517f08c379a000000000000000000000000000000000000000000000000000000000815260040161195390612cfa565b60405180910390fd5b80600260008473ffffffffffffffffffffffffffffffffffffffff1673ffffffffffffffffffffffffffffffffffffffff16815260200190815260200160002060020160006101000a81548160ff0219169083151502179055507ff20d1e67c72081aaae71b98f50829f8584302c77aeeefb74656382b526e2b47d82826040516119e7929190612d1a565b60405180910390a15050565b60008054906101000a900473ffffffffffffffffffffffffffffffffffffffff1681565b6040518060a00160405280600073ffffffffffffffffffffffffffffffffffffffff16815260200160608152602001600015158152602001600015158152602001600081525090565b6040518061014001604052806000815260200160608152602001600073ffffffffffffffffffffffffffffffffffffffff168152602001600073ffffffffffffffffffffffffffffffffffffffff16815260200160006004811115611ac857611ac7611c42565b5b81526020016000815260200160001515815260200160001515815260200160008152602001600081525090565b600080fd5b600080fd5b6000819050919050565b611b1281611aff565b8114611b1d57600080fd5b50565b600081359050611b2f81611b09565b92915050565b600060208284031215611b4b57611b4a611af5565b5b6000611b5984828501611b20565b91505092915050565b611b6b81611aff565b82525050565b600081519050919050565b600082825260208201905092915050565b60005b83811015611bab578082015181840152602081019050611b90565b60008484015250505050565b6000601f19601f8301169050919050565b6000611bd382611b71565b611bdd8185611b7c565b9350611bed818560208601611b8d565b611bf681611bb7565b840191505092915050565b600073ffffffffffffffffffffffffffffffffffffffff82169050919050565b6000611c2c82611c01565b9050919050565b611c3c81611c21565b82525050565b7f4e487b7100000000000000000000000000000000000000000000000000000000600052602160045260246000fd5b60058110611c8257611c81611c42565b5b50565b6000819050611c9382611c71565b919050565b6000611ca382611c85565b9050919050565b611cb381611c98565b82525050565b60008115159050919050565b611cce81611cb9565b82525050565b600061014082019050611cea600083018d611b62565b8181036020830152611cfc818c611bc8565b9050611d0b604083018b611c33565b611d18606083018a611c33565b611d256080830189611caa565b611d3260a0830188611b62565b611d3f60c0830187611cc5565b611d4c60e0830186611cc5565b611d5a610100830185611b62565b611d68610120830184611b62565b9b9a5050505050505050505050565b611d8081611c21565b8114611d8b57600080fd5b50565b600081359050611d9d81611d77565b92915050565b600060208284031215611db957611db8611af5565b5b6000611dc784828501611d8e565b91505092915050565b611dd981611c21565b82525050565b600082825260208201905092915050565b6000611dfb82611b71565b611e058185611ddf565b9350611e15818560208601611b8d565b611e1e81611bb7565b840191505092915050565b611e3281611cb9565b82525050565b611e4181611aff565b82525050565b600060a083016000830151611e5f6000860182611dd0565b5060208301518482036020860152611e778282611df0565b9150506040830151611e8c6040860182611e29565b506060830151611e9f6060860182611e29565b506080830151611eb26080860182611e38565b508091505092915050565b60006020820190508181036000830152611ed78184611e47565b905092915050565b600080fd5b600080fd5b600080fd5b60008083601f840112611f0457611f03611edf565b5b8235905067ffffffffffffffff811115611f2157611f20611ee4565b5b602083019150836001820283011115611f3d57611f3c611ee9565b5b9250929050565b600080600060408486031215611f5d57611f5c611af5565b5b6000611f6b86828701611d8e565b935050602084013567ffffffffffffffff811115611f8c57611f8b611afa565b5b611f9886828701611eee565b92509250509250925092565b6000602082019050611fb96000830184611b62565b92915050565b6000602082019050611fd46000830184611caa565b92915050565b600060a082019050611fef6000830188611c33565b81810360208301526120018187611bc8565b90506120106040830186611cc5565b61201d6060830185611cc5565b61202a6080830184611b62565b9695505050505050565b61203d81611c98565b82525050565b60006101408301600083015161205c6000860182611e38565b50602083015184820360208601526120748282611df0565b91505060408301516120896040860182611dd0565b50606083015161209c6060860182611dd0565b5060808301516120af6080860182612034565b5060a08301516120c260a0860182611e38565b5060c08301516120d560c0860182611e29565b5060e08301516120e860e0860182611e29565b506101008301516120fd610100860182611e38565b50610120830151612112610120860182611e38565b508091505092915050565b600060208201905081810360008301526121378184612043565b905092915050565b6000806020838503121561215657612155611af5565b5b600083013567ffffffffffffffff81111561217457612173611afa565b5b61218085828601611eee565b92509250509250929050565b61219581611cb9565b81146121a057600080fd5b50565b6000813590506121b28161218c565b92915050565b600080604083850312156121cf576121ce611af5565b5b60006121dd85828601611d8e565b92505060206121ee858286016121a3565b9150509250929050565b600060208201905061220d6000830184611c33565b92915050565b7f4e487b7100000000000000000000000000000000000000000000000000000000600052602260045260246000fd5b6000600282049050600182168061225a57607f821691505b60208210810361226d5761226c612213565b5b50919050565b7f4a6f62206e6f7420616374697665000000000000000000000000000000000000600082015250565b60006122a9600e83611b7c565b91506122b482612273565b602082019050919050565b600060208201905081810360008301526122d88161229c565b9050919050565b7f4e6f7420617574686f72697a6564000000000000000000000000000000000000600082015250565b6000612315600e83611b7c565b9150612320826122df565b602082019050919050565b6000602082019050818103600083015261234481612308565b9050919050565b60006040820190506123606000830185611b62565b61236d6020830184611b62565b9392505050565b7f4d616964206e6f74207665726966696564000000000000000000000000000000600082015250565b60006123aa601183611b7c565b91506123b582612374565b602082019050919050565b600060208201905081810360008301526123d98161239d565b9050919050565b7f4465706f73697420726571756972656400000000000000000000000000000000600082015250565b6000612416601083611b7c565b9150612421826123e0565b602082019050919050565b6000602082019050818103600083015261244581612409565b9050919050565b7f4950465320686173682072657175697265640000000000000000000000000000600082015250565b6000612482601283611b7c565b915061248d8261244c565b602082019050919050565b600060208201905081810360008301526124b181612475565b9050919050565b7f456d706c6f79657220616e64204d6169642063616e6e6f742062652073616d65600082015250565b60006124ee602083611b7c565b91506124f9826124b8565b602082019050919050565b6000602082019050818103600083015261251d816124e1565b9050919050565b7f4e487b7100000000000000000000000000000000000000000000000000000000600052601160045260246000fd5b600061255e82611aff565b91507fffffffffffffffffffffffffffffffffffffffffffffffffffffffffffffffff82036125905761258f612524565b5b600182019050919050565b7f4e487b7100000000000000000000000000000000000000000000000000000000600052604160045260246000fd5b60008190508160005260206000209050919050565b60006020601f8301049050919050565b600082821b905092915050565b60006008830261262c7fffffffffffffffffffffffffffffffffffffffffffffffffffffffffffffffff826125ef565b61263686836125ef565b95508019841693508086168417925050509392505050565b6000819050919050565b600061267361266e61266984611aff565b61264e565b611aff565b9050919050565b6000819050919050565b61268d83612658565b6126a16126998261267a565b8484546125fc565b825550505050565b600090565b6126b66126a9565b6126c1818484612684565b505050565b5b818110156126e5576126da6000826126ae565b6001810190506126c7565b5050565b601f82111561272a576126fb816125ca565b612704846125df565b81016020851015612713578190505b61272761271f856125df565b8301826126c6565b50505b505050565b600082821c905092915050565b600061274d6000198460080261272f565b1980831691505092915050565b6000612766838361273c565b9150826002028217905092915050565b61277f82611b71565b67ffffffffffffffff8111156127985761279761259b565b5b6127a28254612242565b6127ad8282856126e9565b600060209050601f8311600181146127e057600084156127ce578287015190505b6127d8858261275a565b865550612840565b601f1984166127ee866125ca565b60005b82811015612816578489015182556001820191506020850194506020810190506127f1565b86831015612833578489015161282f601f89168261273c565b8355505b6001600288020188555050505b505050505050565b600060a08201905061285d6000830188611b62565b61286a6020830187611c33565b6128776040830186611c33565b6128846060830185611b62565b6128916080830184611b62565b9695505050505050565b7f4f6e6c7920656d706c6f79657200000000000000000000000000000000000000600082015250565b60006128d1600d83611b7c565b91506128dc8261289b565b602082019050919050565b60006020820190508181036000830152612900816128c4565b9050919050565b7f416c7265616479206d61726b6564000000000000000000000000000000000000600082015250565b600061293d600e83611b7c565b915061294882612907565b602082019050919050565b6000602082019050818103600083015261296c81612930565b9050919050565b60006060820190506129886000830186611b62565b6129956020830185611c33565b6129a26040830184611b62565b949350505050565b7f4f6e6c792061737369676e6564206d6169640000000000000000000000000000600082015250565b60006129e0601283611b7c565b91506129eb826129aa565b602082019050919050565b60006020820190508181036000830152612a0f816129d3565b9050919050565b7f456d706c6f796572206e6f7420636f6e6669726d656420796574000000000000600082015250565b6000612a4c601a83611b7c565b9150612a5782612a16565b602082019050919050565b60006020820190508181036000830152612a7b81612a3f565b9050919050565b7f416c726561647920636f6e6669726d6564000000000000000000000000000000600082015250565b6000612ab8601183611b7c565b9150612ac382612a82565b602082019050919050565b60006020820190508181036000830152612ae781612aab565b9050919050565b7f4d61696420616c72656164792072656769737465726564000000000000000000600082015250565b6000612b24601783611b7c565b9150612b2f82612aee565b602082019050919050565b60006020820190508181036000830152612b5381612b17565b9050919050565b7f41646d696e2063616e6e6f74206265206d616964000000000000000000000000600082015250565b6000612b90601483611b7c565b9150612b9b82612b5a565b602082019050919050565b60006020820190508181036000830152612bbf81612b83565b9050919050565b82818337600083830152505050565b6000612be18385611b7c565b9350612bee838584612bc6565b612bf783611bb7565b840190509392505050565b6000606082019050612c176000830187611c33565b8181036020830152612c2a818587612bd5565b9050612c396040830184611b62565b95945050505050565b7f4f6e6c792061646d696e00000000000000000000000000000000000000000000600082015250565b6000612c78600a83611b7c565b9150612c8382612c42565b602082019050919050565b60006020820190508181036000830152612ca781612c6b565b9050919050565b7f4d616964206e6f7420666f756e64000000000000000000000000000000000000600082015250565b6000612ce4600e83611b7c565b9150612cef82612cae565b602082019050919050565b60006020820190508181036000830152612d1381612cd7565b9050919050565b6000604082019050612d2f6000830185611c33565b612d3c6020830184611cc5565b939250505056fea2646970667358221220572cabf59bf31fee053fe323987670411dfe406e98603c17c63d54959059e24064736f6c634300081c0033",
  "linkReferences": {},
  "deployedLinkReferences": {}
}